{
  "_format": "hh-sol-artifact-1",
  "contractName": "CommandUtils",
  "sourceName": "@zk-email/email-tx-builder-contracts/src/libraries/CommandUtils.sol",
  "abi": [
    {
      "inputs": [
        {
          "internalType": "uint256",
          "name": "value",
          "type": "uint256"
        },
        {
          "internalType": "uint256",
          "name": "length",
          "type": "uint256"
        }
      ],
      "name": "StringsInsufficientHexLength",
      "type": "error"
    },
    {
      "inputs": [],
      "name": "DECIMALS_MATCHER",
      "outputs": [
        {
          "internalType": "string",
          "name": "",
          "type": "string"
        }
      ],
      "stateMutability": "view",
      "type": "function"
    },
    {
      "inputs": [],
      "name": "ETH_ADDR_MATCHER",
      "outputs": [
        {
          "internalType": "string",
          "name": "",
          "type": "string"
        }
      ],
      "stateMutability": "view",
      "type": "function"
    },
    {
      "inputs": [],
      "name": "INT_MATCHER",
      "outputs": [
        {
          "internalType": "string",
          "name": "",
          "type": "string"
        }
      ],
      "stateMutability": "view",
      "type": "function"
    },
    {
      "inputs": [],
      "name": "STRING_MATCHER",
      "outputs": [
        {
          "internalType": "string",
          "name": "",
          "type": "string"
        }
      ],
      "stateMutability": "view",
      "type": "function"
    },
    {
      "inputs": [],
      "name": "UINT_MATCHER",
      "outputs": [
        {
          "internalType": "string",
          "name": "",
          "type": "string"
        }
      ],
      "stateMutability": "view",
      "type": "function"
    },
    {
      "inputs": [
        {
          "internalType": "bytes",
          "name": "data",
          "type": "bytes"
        }
      ],
      "name": "bytesToHexString",
      "outputs": [
        {
          "internalType": "string",
          "name": "",
          "type": "string"
        }
      ],
      "stateMutability": "pure",
      "type": "function"
    },
    {
      "inputs": [
        {
          "internalType": "bytes[]",
          "name": "commandParams",
          "type": "bytes[]"
        },
        {
          "internalType": "string[]",
          "name": "template",
          "type": "string[]"
        },
        {
          "internalType": "uint256",
          "name": "stringCase",
          "type": "uint256"
        }
      ],
      "name": "computeExpectedCommand",
      "outputs": [
        {
          "internalType": "string",
          "name": "expectedCommand",
          "type": "string"
        }
      ],
      "stateMutability": "pure",
      "type": "function"
    }
  ],
  "bytecode": "0x611f2f610052600b82828239805160001a6073146045577f4e487b7100000000000000000000000000000000000000000000000000000000600052600060045260246000fd5b30600052607381538281f3fe73000000000000000000000000000000000000000030146080604052600436106100865760003560e01c80634e5cb584116100655780634e5cb584146100f75780637d520c2214610115578063e53028c014610145578063fae5ce331461016357610086565b8062cbd18a1461008b57806343b08005146100a95780634d69ffee146100c7575b600080fd5b610093610181565b6040516100a09190611468565b60405180910390f35b6100b16101ba565b6040516100be9190611468565b60405180910390f35b6100e160048036038101906100dc9190611871565b6101f3565b6040516100ee9190611468565b60405180910390f35b6100ff610670565b60405161010c9190611468565b60405180910390f35b61012f600480360381019061012a91906118fc565b6106a9565b60405161013c9190611468565b60405180910390f35b61014d61087b565b60405161015a9190611468565b60405180910390f35b61016b6108b4565b6040516101789190611468565b60405180910390f35b6040518060400160405280600981526020017f7b657468416464727d000000000000000000000000000000000000000000000081525081565b6040518060400160405280600581526020017f7b696e747d00000000000000000000000000000000000000000000000000000081525081565b606060006060600080600090505b86518160ff161015610665576001915061026d878260ff168151811061022a57610229611945565b5b60200260200101516040518060400160405280600881526020017f7b737472696e677d0000000000000000000000000000000000000000000000008152506108ed565b156102b0576000888560ff168151811061028a57610289611945565b5b60200260200101518060200190518101906102a591906119e4565b9050809350506105ea565b61030c878260ff16815181106102c9576102c8611945565b5b60200260200101516040518060400160405280600681526020017f7b75696e747d00000000000000000000000000000000000000000000000000008152506108ed565b15610357576000888560ff168151811061032957610328611945565b5b60200260200101518060200190518101906103449190611a42565b905061034f81610915565b9350506105e9565b6103b3878260ff16815181106103705761036f611945565b5b60200260200101516040518060400160405280600581526020017f7b696e747d0000000000000000000000000000000000000000000000000000008152506108ed565b156103fe576000888560ff16815181106103d0576103cf611945565b5b60200260200101518060200190518101906103eb9190611aa5565b90506103f6816109e3565b9350506105e8565b61045a878260ff168151811061041757610416611945565b5b60200260200101516040518060400160405280600a81526020017f7b646563696d616c737d000000000000000000000000000000000000000000008152506108ed565b15610519576000888560ff168151811061047757610476611945565b5b60200260200101518060200190518101906104929190611a42565b905073__$410afd9ff3e34d858d76e69a424bcb45e6$__636f186a79826040518263ffffffff1660e01b81526004016104cb9190611ae1565b600060405180830381865af41580156104e8573d6000803e3d6000fd5b505050506040513d6000823e3d601f19601f8201168201806040525081019061051191906119e4565b9350506105e7565b610575878260ff168151811061053257610531611945565b5b60200260200101516040518060400160405280600981526020017f7b657468416464727d00000000000000000000000000000000000000000000008152506108ed565b156105c1576000888560ff168151811061059257610591611945565b5b60200260200101518060200190518101906105ad9190611b5a565b90506105b98188610a71565b9350506105e6565b60009150868160ff16815181106105db576105da611945565b5b602002602001015192505b5b5b5b5b60008160ff16111561061957846040516020016106079190611c0f565b60405160208183030381529060405294505b848360405160200161062c929190611c31565b6040516020818303038152906040529450811561065257838061064e90611c91565b9450505b808061065d90611c91565b915050610201565b505050509392505050565b6040518060400160405280600881526020017f7b737472696e677d00000000000000000000000000000000000000000000000081525081565b606060006040518060400160405280601081526020017f303132333435363738396162636465660000000000000000000000000000000081525090506000835160026106f59190611cba565b67ffffffffffffffff81111561070e5761070d6114a3565b5b6040519080825280601f01601f1916602001820160405280156107405781602001600182028036833780820191505090505b50905060005b845181101561087057600085828151811061076457610763611945565b5b602001015160f81c60f81b60f81c60ff16905083600482901c8151811061078e5761078d611945565b5b602001015160f81c60f81b838360026107a79190611cba565b815181106107b8576107b7611945565b5b60200101907effffffffffffffffffffffffffffffffffffffffffffffffffffffffffffff1916908160001a90535083600f8216815181106107fd576107fc611945565b5b602001015160f81c60f81b8360018460026108189190611cba565b6108229190611cfc565b8151811061083357610832611945565b5b60200101907effffffffffffffffffffffffffffffffffffffffffffffffffffffffffffff1916908160001a905350508080600101915050610746565b508092505050919050565b6040518060400160405280600681526020017f7b75696e747d000000000000000000000000000000000000000000000000000081525081565b6040518060400160405280600a81526020017f7b646563696d616c737d0000000000000000000000000000000000000000000081525081565b60008151835114801561090d575081805190602001208380519060200120145b905092915050565b60606000600161092484610b04565b01905060008167ffffffffffffffff811115610943576109426114a3565b5b6040519080825280601f01601f1916602001820160405280156109755781602001600182028036833780820191505090505b509050600082602001820190505b6001156109d8578080600190039150507f3031323334353637383961626364656600000000000000000000000000000000600a86061a8153600a85816109cc576109cb611d30565b5b04945060008503610983575b819350505050919050565b606060008212610a025760405180602001604052806000815250610a39565b6040518060400160405280600181526020017f2d000000000000000000000000000000000000000000000000000000000000008152505b610a4a610a4584610c57565b610915565b604051602001610a5b929190611c31565b6040516020818303038152906040529050919050565b606060008203610a8b57610a8483610c6e565b9050610afe565b60018203610aa357610a9c8361102d565b9050610afe565b60028203610ac357610abc610ab78461102d565b61105a565b9050610afe565b6040517f08c379a0000000000000000000000000000000000000000000000000000000008152600401610af590611dbc565b60405180910390fd5b92915050565b600080600090507a184f03e93ff9f4daa797ed6e38ed64bf6a1f0100000000000000008310610b62577a184f03e93ff9f4daa797ed6e38ed64bf6a1f0100000000000000008381610b5857610b57611d30565b5b0492506040810190505b6d04ee2d6d415b85acef81000000008310610b9f576d04ee2d6d415b85acef81000000008381610b9557610b94611d30565b5b0492506020810190505b662386f26fc100008310610bce57662386f26fc100008381610bc457610bc3611d30565b5b0492506010810190505b6305f5e1008310610bf7576305f5e1008381610bed57610bec611d30565b5b0492506008810190505b6127108310610c1c576127108381610c1257610c11611d30565b5b0492506004810190505b60648310610c3f5760648381610c3557610c34611d30565b5b0492506002810190505b600a8310610c4e576001810190505b80915050919050565b60008060ff83901d90508081840118915050919050565b60606000610c7b8361102d565b90506000602867ffffffffffffffff811115610c9a57610c996114a3565b5b6040519080825280601f01601f191660200182016040528015610ccc5781602001600182028036833780820191505090505b5090506000600290505b602a8160ff161015610d6157828160ff1681518110610cf857610cf7611945565b5b602001015160f81c60f81b82600283610d119190611ddc565b60ff1681518110610d2557610d24611945565b5b60200101907effffffffffffffffffffffffffffffffffffffffffffffffffffffffffffff1916908160001a9053508080600101915050610cd6565b50600081604051602001610d759190611e58565b6040516020818303038152906040528051906020012060001c90506000602a67ffffffffffffffff811115610dad57610dac6114a3565b5b6040519080825280601f01601f191660200182016040528015610ddf5781602001600182028036833780820191505090505b5090507f300000000000000000000000000000000000000000000000000000000000000081600081518110610e1757610e16611945565b5b60200101907effffffffffffffffffffffffffffffffffffffffffffffffffffffffffffff1916908160001a9053507f780000000000000000000000000000000000000000000000000000000000000081600181518110610e7b57610e7a611945565b5b60200101907effffffffffffffffffffffffffffffffffffffffffffffffffffffffffffff1916908160001a905350606082901c915060008673ffffffffffffffffffffffffffffffffffffffff1690506000602990505b60018160ff16111561101f576000600f851690506000600f8416905060088260ff1610610f7e577f30313233343536373839414243444546000000000000000000000000000000008160ff1660108110610f3057610f2f611945565b5b1a60f81b858460ff1681518110610f4a57610f49611945565b5b60200101907effffffffffffffffffffffffffffffffffffffffffffffffffffffffffffff1916908160001a905350610ffe565b7f30313233343536373839616263646566000000000000000000000000000000008160ff1660108110610fb457610fb3611945565b5b1a60f81b858460ff1681518110610fce57610fcd611945565b5b60200101907effffffffffffffffffffffffffffffffffffffffffffffffffffffffffffff1916908160001a9053505b600484901c9350600486901c955050508061101890611e6f565b9050610ed3565b508195505050505050919050565b60606110538273ffffffffffffffffffffffffffffffffffffffff16601460ff16611192565b9050919050565b6060600082905060005b815181101561118857606160f81b82828151811061108557611084611945565b5b602001015160f81c60f81b7effffffffffffffffffffffffffffffffffffffffffffffffffffffffffffff1916101580156111035750606660f81b8282815181106110d3576110d2611945565b5b602001015160f81c60f81b7effffffffffffffffffffffffffffffffffffffffffffffffffffffffffffff191611155b1561117b57602082828151811061111d5761111c611945565b5b602001015160f81c60f81b60f81c6111359190611ddc565b60f81b82828151811061114b5761114a611945565b5b60200101907effffffffffffffffffffffffffffffffffffffffffffffffffffffffffffff1916908160001a9053505b8080600101915050611064565b5080915050919050565b60606000839050600060028460026111aa9190611cba565b6111b49190611cfc565b67ffffffffffffffff8111156111cd576111cc6114a3565b5b6040519080825280601f01601f1916602001820160405280156111ff5781602001600182028036833780820191505090505b5090507f30000000000000000000000000000000000000000000000000000000000000008160008151811061123757611236611945565b5b60200101907effffffffffffffffffffffffffffffffffffffffffffffffffffffffffffff1916908160001a9053507f78000000000000000000000000000000000000000000000000000000000000008160018151811061129b5761129a611945565b5b60200101907effffffffffffffffffffffffffffffffffffffffffffffffffffffffffffff1916908160001a905350600060018560026112db9190611cba565b6112e59190611cfc565b90505b6001811115611385577f3031323334353637383961626364656600000000000000000000000000000000600f84166010811061132757611326611945565b5b1a60f81b82828151811061133e5761133d611945565b5b60200101907effffffffffffffffffffffffffffffffffffffffffffffffffffffffffffff1916908160001a905350600483901c92508061137e90611e98565b90506112e8565b50600082146113cd5784846040517fe22e27eb0000000000000000000000000000000000000000000000000000000081526004016113c4929190611ed0565b60405180910390fd5b809250505092915050565b600081519050919050565b600082825260208201905092915050565b60005b838110156114125780820151818401526020810190506113f7565b60008484015250505050565b6000601f19601f8301169050919050565b600061143a826113d8565b61144481856113e3565b93506114548185602086016113f4565b61145d8161141e565b840191505092915050565b60006020820190508181036000830152611482818461142f565b905092915050565b6000604051905090565b600080fd5b600080fd5b600080fd5b7f4e487b7100000000000000000000000000000000000000000000000000000000600052604160045260246000fd5b6114db8261141e565b810181811067ffffffffffffffff821117156114fa576114f96114a3565b5b80604052505050565b600061150d61148a565b905061151982826114d2565b919050565b600067ffffffffffffffff821115611539576115386114a3565b5b602082029050602081019050919050565b600080fd5b600080fd5b600067ffffffffffffffff82111561156f5761156e6114a3565b5b6115788261141e565b9050602081019050919050565b82818337600083830152505050565b60006115a76115a284611554565b611503565b9050828152602081018484840111156115c3576115c261154f565b5b6115ce848285611585565b509392505050565b600082601f8301126115eb576115ea61149e565b5b81356115fb848260208601611594565b91505092915050565b60006116176116128461151e565b611503565b9050808382526020820190506020840283018581111561163a5761163961154a565b5b835b8181101561168157803567ffffffffffffffff81111561165f5761165e61149e565b5b80860161166c89826115d6565b8552602085019450505060208101905061163c565b5050509392505050565b600082601f8301126116a05761169f61149e565b5b81356116b0848260208601611604565b91505092915050565b600067ffffffffffffffff8211156116d4576116d36114a3565b5b602082029050602081019050919050565b600067ffffffffffffffff821115611700576116ff6114a3565b5b6117098261141e565b9050602081019050919050565b6000611729611724846116e5565b611503565b9050828152602081018484840111156117455761174461154f565b5b611750848285611585565b509392505050565b600082601f83011261176d5761176c61149e565b5b813561177d848260208601611716565b91505092915050565b6000611799611794846116b9565b611503565b905080838252602082019050602084028301858111156117bc576117bb61154a565b5b835b8181101561180357803567ffffffffffffffff8111156117e1576117e061149e565b5b8086016117ee8982611758565b855260208501945050506020810190506117be565b5050509392505050565b600082601f8301126118225761182161149e565b5b8135611832848260208601611786565b91505092915050565b6000819050919050565b61184e8161183b565b811461185957600080fd5b50565b60008135905061186b81611845565b92915050565b60008060006060848603121561188a57611889611494565b5b600084013567ffffffffffffffff8111156118a8576118a7611499565b5b6118b48682870161168b565b935050602084013567ffffffffffffffff8111156118d5576118d4611499565b5b6118e18682870161180d565b92505060406118f28682870161185c565b9150509250925092565b60006020828403121561191257611911611494565b5b600082013567ffffffffffffffff8111156119305761192f611499565b5b61193c848285016115d6565b91505092915050565b7f4e487b7100000000000000000000000000000000000000000000000000000000600052603260045260246000fd5b6000611987611982846116e5565b611503565b9050828152602081018484840111156119a3576119a261154f565b5b6119ae8482856113f4565b509392505050565b600082601f8301126119cb576119ca61149e565b5b81516119db848260208601611974565b91505092915050565b6000602082840312156119fa576119f9611494565b5b600082015167ffffffffffffffff811115611a1857611a17611499565b5b611a24848285016119b6565b91505092915050565b600081519050611a3c81611845565b92915050565b600060208284031215611a5857611a57611494565b5b6000611a6684828501611a2d565b91505092915050565b6000819050919050565b611a8281611a6f565b8114611a8d57600080fd5b50565b600081519050611a9f81611a79565b92915050565b600060208284031215611abb57611aba611494565b5b6000611ac984828501611a90565b91505092915050565b611adb8161183b565b82525050565b6000602082019050611af66000830184611ad2565b92915050565b600073ffffffffffffffffffffffffffffffffffffffff82169050919050565b6000611b2782611afc565b9050919050565b611b3781611b1c565b8114611b4257600080fd5b50565b600081519050611b5481611b2e565b92915050565b600060208284031215611b7057611b6f611494565b5b6000611b7e84828501611b45565b91505092915050565b600081905092915050565b6000611b9d826113d8565b611ba78185611b87565b9350611bb78185602086016113f4565b80840191505092915050565b7f2000000000000000000000000000000000000000000000000000000000000000600082015250565b6000611bf9600183611b87565b9150611c0482611bc3565b600182019050919050565b6000611c1b8284611b92565b9150611c2682611bec565b915081905092915050565b6000611c3d8285611b92565b9150611c498284611b92565b91508190509392505050565b7f4e487b7100000000000000000000000000000000000000000000000000000000600052601160045260246000fd5b600060ff82169050919050565b6000611c9c82611c84565b915060ff8203611caf57611cae611c55565b5b600182019050919050565b6000611cc58261183b565b9150611cd08361183b565b9250828202611cde8161183b565b91508282048414831517611cf557611cf4611c55565b5b5092915050565b6000611d078261183b565b9150611d128361183b565b9250828201905080821115611d2a57611d29611c55565b5b92915050565b7f4e487b7100000000000000000000000000000000000000000000000000000000600052601260045260246000fd5b600082825260208201905092915050565b7f696e76616c696420737472696e67436173650000000000000000000000000000600082015250565b6000611da6601283611d5f565b9150611db182611d70565b602082019050919050565b60006020820190508181036000830152611dd581611d99565b9050919050565b6000611de782611c84565b9150611df283611c84565b9250828203905060ff811115611e0b57611e0a611c55565b5b92915050565b600081519050919050565b600081905092915050565b6000611e3282611e11565b611e3c8185611e1c565b9350611e4c8185602086016113f4565b80840191505092915050565b6000611e648284611e27565b915081905092915050565b6000611e7a82611c84565b915060008203611e8d57611e8c611c55565b5b600182039050919050565b6000611ea38261183b565b915060008203611eb657611eb5611c55565b5b600182039050919050565b611eca8161183b565b82525050565b6000604082019050611ee56000830185611ec1565b611ef26020830184611ec1565b939250505056fea264697066735822122065ce713d74d9741ca1dc4035dc84f08cd1f988871f4e9833fb1267a1775ad7d364736f6c63430008190033",
  "linkReferences": {
    "@zk-email/email-tx-builder-contracts/src/libraries/DecimalUtils.sol": {
      "DecimalUtils": [
        {
          "length": 20,
          "start": 1256
        }
      ]
    }
  },
  "deployedLinkReferences": {
    "@zk-email/email-tx-builder-contracts/src/libraries/DecimalUtils.sol": {
      "DecimalUtils": [
        {
          "length": 20,
          "start": 1174
        }
      ]
    }
  }
}