{
  "_format": "hh-sol-artifact-1",
  "contractName": "Verifier",
  "sourceName": "@zk-email/email-tx-builder-contracts/src/utils/Verifier.sol",
  "abi": [
    {
      "inputs": [],
      "stateMutability": "nonpayable",
      "type": "constructor"
    },
    {
      "inputs": [
        {
          "internalType": "address",
          "name": "target",
          "type": "address"
        }
      ],
      "name": "AddressEmptyCode",
      "type": "error"
    },
    {
      "inputs": [
        {
          "internalType": "address",
          "name": "implementation",
          "type": "address"
        }
      ],
      "name": "ERC1967InvalidImplementation",
      "type": "error"
    },
    {
      "inputs": [],
      "name": "ERC1967NonPayable",
      "type": "error"
    },
    {
      "inputs": [],
      "name": "FailedCall",
      "type": "error"
    },
    {
      "inputs": [],
      "name": "InvalidInitialization",
      "type": "error"
    },
    {
      "inputs": [],
      "name": "NotInitializing",
      "type": "error"
    },
    {
      "inputs": [
        {
          "internalType": "address",
          "name": "owner",
          "type": "address"
        }
      ],
      "name": "OwnableInvalidOwner",
      "type": "error"
    },
    {
      "inputs": [
        {
          "internalType": "address",
          "name": "account",
          "type": "address"
        }
      ],
      "name": "OwnableUnauthorizedAccount",
      "type": "error"
    },
    {
      "inputs": [],
      "name": "UUPSUnauthorizedCallContext",
      "type": "error"
    },
    {
      "inputs": [
        {
          "internalType": "bytes32",
          "name": "slot",
          "type": "bytes32"
        }
      ],
      "name": "UUPSUnsupportedProxiableUUID",
      "type": "error"
    },
    {
      "anonymous": false,
      "inputs": [
        {
          "indexed": false,
          "internalType": "uint64",
          "name": "version",
          "type": "uint64"
        }
      ],
      "name": "Initialized",
      "type": "event"
    },
    {
      "anonymous": false,
      "inputs": [
        {
          "indexed": true,
          "internalType": "address",
          "name": "previousOwner",
          "type": "address"
        },
        {
          "indexed": true,
          "internalType": "address",
          "name": "newOwner",
          "type": "address"
        }
      ],
      "name": "OwnershipTransferred",
      "type": "event"
    },
    {
      "anonymous": false,
      "inputs": [
        {
          "indexed": true,
          "internalType": "address",
          "name": "implementation",
          "type": "address"
        }
      ],
      "name": "Upgraded",
      "type": "event"
    },
    {
      "inputs": [],
      "name": "COMMAND_BYTES",
      "outputs": [
        {
          "internalType": "uint256",
          "name": "",
          "type": "uint256"
        }
      ],
      "stateMutability": "view",
      "type": "function"
    },
    {
      "inputs": [],
      "name": "COMMAND_FIELDS",
      "outputs": [
        {
          "internalType": "uint256",
          "name": "",
          "type": "uint256"
        }
      ],
      "stateMutability": "view",
      "type": "function"
    },
    {
      "inputs": [],
      "name": "DOMAIN_BYTES",
      "outputs": [
        {
          "internalType": "uint256",
          "name": "",
          "type": "uint256"
        }
      ],
      "stateMutability": "view",
      "type": "function"
    },
    {
      "inputs": [],
      "name": "DOMAIN_FIELDS",
      "outputs": [
        {
          "internalType": "uint256",
          "name": "",
          "type": "uint256"
        }
      ],
      "stateMutability": "view",
      "type": "function"
    },
    {
      "inputs": [],
      "name": "UPGRADE_INTERFACE_VERSION",
      "outputs": [
        {
          "internalType": "string",
          "name": "",
          "type": "string"
        }
      ],
      "stateMutability": "view",
      "type": "function"
    },
    {
      "inputs": [],
      "name": "commandBytes",
      "outputs": [
        {
          "internalType": "uint256",
          "name": "",
          "type": "uint256"
        }
      ],
      "stateMutability": "pure",
      "type": "function"
    },
    {
      "inputs": [
        {
          "internalType": "address",
          "name": "_initialOwner",
          "type": "address"
        },
        {
          "internalType": "address",
          "name": "_groth16Verifier",
          "type": "address"
        }
      ],
      "name": "initialize",
      "outputs": [],
      "stateMutability": "nonpayable",
      "type": "function"
    },
    {
      "inputs": [],
      "name": "owner",
      "outputs": [
        {
          "internalType": "address",
          "name": "",
          "type": "address"
        }
      ],
      "stateMutability": "view",
      "type": "function"
    },
    {
      "inputs": [],
      "name": "proxiableUUID",
      "outputs": [
        {
          "internalType": "bytes32",
          "name": "",
          "type": "bytes32"
        }
      ],
      "stateMutability": "view",
      "type": "function"
    },
    {
      "inputs": [],
      "name": "renounceOwnership",
      "outputs": [],
      "stateMutability": "nonpayable",
      "type": "function"
    },
    {
      "inputs": [
        {
          "internalType": "address",
          "name": "newOwner",
          "type": "address"
        }
      ],
      "name": "transferOwnership",
      "outputs": [],
      "stateMutability": "nonpayable",
      "type": "function"
    },
    {
      "inputs": [
        {
          "internalType": "address",
          "name": "_groth16Verifier",
          "type": "address"
        }
      ],
      "name": "updateGroth16Verifier",
      "outputs": [],
      "stateMutability": "nonpayable",
      "type": "function"
    },
    {
      "inputs": [
        {
          "internalType": "address",
          "name": "newImplementation",
          "type": "address"
        },
        {
          "internalType": "bytes",
          "name": "data",
          "type": "bytes"
        }
      ],
      "name": "upgradeToAndCall",
      "outputs": [],
      "stateMutability": "payable",
      "type": "function"
    },
    {
      "inputs": [
        {
          "components": [
            {
              "internalType": "string",
              "name": "domainName",
              "type": "string"
            },
            {
              "internalType": "bytes32",
              "name": "publicKeyHash",
              "type": "bytes32"
            },
            {
              "internalType": "uint256",
              "name": "timestamp",
              "type": "uint256"
            },
            {
              "internalType": "string",
              "name": "maskedCommand",
              "type": "string"
            },
            {
              "internalType": "bytes32",
              "name": "emailNullifier",
              "type": "bytes32"
            },
            {
              "internalType": "bytes32",
              "name": "accountSalt",
              "type": "bytes32"
            },
            {
              "internalType": "bool",
              "name": "isCodeExist",
              "type": "bool"
            },
            {
              "internalType": "bytes",
              "name": "proof",
              "type": "bytes"
            }
          ],
          "internalType": "struct EmailProof",
          "name": "proof",
          "type": "tuple"
        }
      ],
      "name": "verifyEmailProof",
      "outputs": [
        {
          "internalType": "bool",
          "name": "",
          "type": "bool"
        }
      ],
      "stateMutability": "view",
      "type": "function"
    }
  ],
  "bytecode": "0x60a06040523073ffffffffffffffffffffffffffffffffffffffff1660809073ffffffffffffffffffffffffffffffffffffffff16815250348015604257600080fd5b5060805161271561006c60003960008181610d5501528181610daa0152610f6501526127156000f3fe6080604052600436106100dd5760003560e01c80638da5cb5b1161007f578063ad3cb1cc11610059578063ad3cb1cc1461027d578063b2defd78146102a8578063b5f21e88146102d3578063f2fde38b146102fc576100dd565b80638da5cb5b146101ea5780639241b06e146102155780639ecd831014610240576100dd565b806352d1902d116100bb57806352d1902d146101525780636fd061e51461017d578063715018a6146101a857806386c290ae146101bf576100dd565b8063485cc955146100e25780634f1ef2861461010b5780634f37e3dc14610127575b600080fd5b3480156100ee57600080fd5b50610109600480360381019061010491906117c8565b610325565b005b6101256004803603810190610120919061194e565b6104f5565b005b34801561013357600080fd5b5061013c610514565b60405161014991906119c3565b60405180910390f35b34801561015e57600080fd5b5061016761051e565b60405161017491906119f7565b60405180910390f35b34801561018957600080fd5b50610192610551565b60405161019f91906119c3565b60405180910390f35b3480156101b457600080fd5b506101bd610556565b005b3480156101cb57600080fd5b506101d461056a565b6040516101e191906119c3565b60405180910390f35b3480156101f657600080fd5b506101ff61056f565b60405161020c9190611a21565b60405180910390f35b34801561022157600080fd5b5061022a6105a7565b60405161023791906119c3565b60405180910390f35b34801561024c57600080fd5b5061026760048036038101906102629190611c95565b6105ad565b6040516102749190611ced565b60405180910390f35b34801561028957600080fd5b50610292610b99565b60405161029f9190611d87565b60405180910390f35b3480156102b457600080fd5b506102bd610bd2565b6040516102ca91906119c3565b60405180910390f35b3480156102df57600080fd5b506102fa60048036038101906102f59190611da9565b610bd7565b005b34801561030857600080fd5b50610323600480360381019061031e9190611da9565b610c91565b005b600061032f610d17565b905060008160000160089054906101000a900460ff1615905060008260000160009054906101000a900467ffffffffffffffff1690506000808267ffffffffffffffff1614801561037d5750825b9050600060018367ffffffffffffffff161480156103b2575060003073ffffffffffffffffffffffffffffffffffffffff163b145b9050811580156103c0575080155b156103f7576040517ff92ee8a900000000000000000000000000000000000000000000000000000000815260040160405180910390fd5b60018560000160006101000a81548167ffffffffffffffff021916908367ffffffffffffffff16021790555083156104475760018560000160086101000a81548160ff0219169083151502179055505b61045087610d3f565b856000806101000a81548173ffffffffffffffffffffffffffffffffffffffff021916908373ffffffffffffffffffffffffffffffffffffffff16021790555083156104ec5760008560000160086101000a81548160ff0219169083151502179055507fc7f505b2f371ae2175ee4913f4499e1f2633a7b5936321eed1cdaeb6115181d260016040516104e39190611e2f565b60405180910390a15b50505050505050565b6104fd610d53565b61050682610e39565b6105108282610e44565b5050565b600061025d905090565b6000610528610f63565b7f360894a13ba1a3210667c828492db98dca3e2076cc3735a920a3ca505d382bbc60001b905090565b601481565b61055e610fea565b6105686000611071565b565b60ff81565b60008061057a611148565b90508060000160009054906101000a900473ffffffffffffffffffffffffffffffffffffffff1691505090565b61025d81565b6000806000808460e001518060200190518101906105cb9190611fc6565b9250925092507f30644e72e131a029b85045b68181585d97816a916871ca8d3c208c16d87cfd47836000600281106106065761060561201a565b5b602002015110801561064f57507f30644e72e131a029b85045b68181585d97816a916871ca8d3c208c16d87cfd47836001600281106106485761064761201a565b5b6020020151105b61068e576040517f08c379a000000000000000000000000000000000000000000000000000000000815260040161068590612095565b60405180910390fd5b7f30644e72e131a029b85045b68181585d97816a916871ca8d3c208c16d87cfd47826000600281106106c3576106c261201a565b5b60200201516000600281106106db576106da61201a565b5b602002015110801561073c57507f30644e72e131a029b85045b68181585d97816a916871ca8d3c208c16d87cfd478260006002811061071d5761071c61201a565b5b60200201516001600281106107355761073461201a565b5b6020020151105b801561079757507f30644e72e131a029b85045b68181585d97816a916871ca8d3c208c16d87cfd47826001600281106107785761077761201a565b5b60200201516000600281106107905761078f61201a565b5b6020020151105b80156107f257507f30644e72e131a029b85045b68181585d97816a916871ca8d3c208c16d87cfd47826001600281106107d3576107d261201a565b5b60200201516001600281106107eb576107ea61201a565b5b6020020151105b610831576040517f08c379a000000000000000000000000000000000000000000000000000000000815260040161082890612101565b60405180910390fd5b7f30644e72e131a029b85045b68181585d97816a916871ca8d3c208c16d87cfd47816000600281106108665761086561201a565b5b60200201511080156108af57507f30644e72e131a029b85045b68181585d97816a916871ca8d3c208c16d87cfd47816001600281106108a8576108a761201a565b5b6020020151105b6108ee576040517f08c379a00000000000000000000000000000000000000000000000000000000081526004016108e59061216d565b60405180910390fd5b6108f6611733565b6060610907876000015160ff611170565b905060005b6009811015610959578181815181106109285761092761201a565b5b60200260200101518382602281106109435761094261201a565b5b602002018181525050808060010191505061090c565b50866020015160001c826009602281106109765761097561201a565b5b602002018181525050866080015160001c826001600961099691906121bc565b602281106109a7576109a661201a565b5b602002018181525050866040015182600260096109c491906121bc565b602281106109d5576109d461201a565b5b6020020181815250506109ee876060015161025d611170565b905060005b6014811015610a5857818181518110610a0f57610a0e61201a565b5b6020026020010151838260036009610a2791906121bc565b610a3191906121bc565b60228110610a4257610a4161201a565b5b60200201818152505080806001019150506109f3565b508660a0015160001c82601460036009610a7291906121bc565b610a7c91906121bc565b60228110610a8d57610a8c61201a565b5b6020020181815250508660c00151610aa6576000610aa9565b60015b60ff16826001601460036009610abf91906121bc565b610ac991906121bc565b610ad391906121bc565b60228110610ae457610ae361201a565b5b60200201818152505060008054906101000a900473ffffffffffffffffffffffffffffffffffffffff1673ffffffffffffffffffffffffffffffffffffffff16638525a61d868686866040518563ffffffff1660e01b8152600401610b4c949392919061241d565b602060405180830381865afa158015610b69573d6000803e3d6000fd5b505050506040513d601f19601f82011682018060405250810190610b8d9190612479565b95505050505050919050565b6040518060400160405280600581526020017f352e302e3000000000000000000000000000000000000000000000000000000081525081565b600981565b610bdf610fea565b600073ffffffffffffffffffffffffffffffffffffffff168173ffffffffffffffffffffffffffffffffffffffff1603610c4e576040517f08c379a0000000000000000000000000000000000000000000000000000000008152600401610c4590612518565b60405180910390fd5b806000806101000a81548173ffffffffffffffffffffffffffffffffffffffff021916908373ffffffffffffffffffffffffffffffffffffffff16021790555050565b610c99610fea565b600073ffffffffffffffffffffffffffffffffffffffff168173ffffffffffffffffffffffffffffffffffffffff1603610d0b5760006040517f1e4fbdf7000000000000000000000000000000000000000000000000000000008152600401610d029190611a21565b60405180910390fd5b610d1481611071565b50565b60007ff0c57e16840df040f15088dc2f81fe391c3923bec73e23a9662efc9c229c6a00905090565b610d4761130f565b610d508161134f565b50565b7f000000000000000000000000000000000000000000000000000000000000000073ffffffffffffffffffffffffffffffffffffffff163073ffffffffffffffffffffffffffffffffffffffff161480610e0057507f000000000000000000000000000000000000000000000000000000000000000073ffffffffffffffffffffffffffffffffffffffff16610de76113d5565b73ffffffffffffffffffffffffffffffffffffffff1614155b15610e37576040517fe07c8dba00000000000000000000000000000000000000000000000000000000815260040160405180910390fd5b565b610e41610fea565b50565b8173ffffffffffffffffffffffffffffffffffffffff166352d1902d6040518163ffffffff1660e01b8152600401602060405180830381865afa925050508015610eac57506040513d601f19601f82011682018060405250810190610ea9919061254d565b60015b610eed57816040517f4c9c8ce3000000000000000000000000000000000000000000000000000000008152600401610ee49190611a21565b60405180910390fd5b7f360894a13ba1a3210667c828492db98dca3e2076cc3735a920a3ca505d382bbc60001b8114610f5457806040517faa1d49a4000000000000000000000000000000000000000000000000000000008152600401610f4b91906119f7565b60405180910390fd5b610f5e838361142c565b505050565b7f000000000000000000000000000000000000000000000000000000000000000073ffffffffffffffffffffffffffffffffffffffff163073ffffffffffffffffffffffffffffffffffffffff1614610fe8576040517fe07c8dba00000000000000000000000000000000000000000000000000000000815260040160405180910390fd5b565b610ff261149f565b73ffffffffffffffffffffffffffffffffffffffff1661101061056f565b73ffffffffffffffffffffffffffffffffffffffff161461106f5761103361149f565b6040517f118cdaa70000000000000000000000000000000000000000000000000000000081526004016110669190611a21565b60405180910390fd5b565b600061107b611148565b905060008160000160009054906101000a900473ffffffffffffffffffffffffffffffffffffffff169050828260000160006101000a81548173ffffffffffffffffffffffffffffffffffffffff021916908373ffffffffffffffffffffffffffffffffffffffff1602179055508273ffffffffffffffffffffffffffffffffffffffff168173ffffffffffffffffffffffffffffffffffffffff167f8be0079c531659141344cd1fd0a4f28419497f9722a3daafe3b4186f6b6457e060405160405180910390a3505050565b60007f9016d09d72d40fdae2fd8ceac6b6234c7706214fd39c1cd1e609a0528c199300905090565b60606000601f8361118191906125a9565b90506000601f828561119391906125da565b61119d919061260e565b905060008211156111b8576001816111b591906121bc565b90505b60008167ffffffffffffffff8111156111d4576111d3611823565b5b6040519080825280602002602001820160405280156112025781602001602082028036833780820191505090505b50905060008060005b848110156113005760005b601f8110156112f25780601f8361122d919061263f565b61123791906121bc565b9350888410156112f257895184106112525760009250611279565b8984815181106112655761126461201a565b5b602001015160f81c60f81b60f81c60ff1692505b600081036112a657828583815181106112955761129461201a565b5b6020026020010181815250506112e5565b8060086112b3919061263f565b83901b8583815181106112c9576112c861201a565b5b602002602001018181516112dd91906121bc565b915081815250505b8080600101915050611216565b50808060010191505061120b565b50829550505050505092915050565b6113176114a7565b61134d576040517fd7e6bcf800000000000000000000000000000000000000000000000000000000815260040160405180910390fd5b565b61135761130f565b600073ffffffffffffffffffffffffffffffffffffffff168173ffffffffffffffffffffffffffffffffffffffff16036113c95760006040517f1e4fbdf70000000000000000000000000000000000000000000000000000000081526004016113c09190611a21565b60405180910390fd5b6113d281611071565b50565b60006114037f360894a13ba1a3210667c828492db98dca3e2076cc3735a920a3ca505d382bbc60001b6114c7565b60000160009054906101000a900473ffffffffffffffffffffffffffffffffffffffff16905090565b611435826114d1565b8173ffffffffffffffffffffffffffffffffffffffff167fbc7cd75a20ee27fd9adebab32041f755214dbc6bffa90cc0225b39da2e5c2d3b60405160405180910390a26000815111156114925761148c828261159e565b5061149b565b61149a611622565b5b5050565b600033905090565b60006114b1610d17565b60000160089054906101000a900460ff16905090565b6000819050919050565b60008173ffffffffffffffffffffffffffffffffffffffff163b0361152d57806040517f4c9c8ce30000000000000000000000000000000000000000000000000000000081526004016115249190611a21565b60405180910390fd5b8061155a7f360894a13ba1a3210667c828492db98dca3e2076cc3735a920a3ca505d382bbc60001b6114c7565b60000160006101000a81548173ffffffffffffffffffffffffffffffffffffffff021916908373ffffffffffffffffffffffffffffffffffffffff16021790555050565b60606000808473ffffffffffffffffffffffffffffffffffffffff16846040516115c891906126c8565b600060405180830381855af49150503d8060008114611603576040519150601f19603f3d011682016040523d82523d6000602084013e611608565b606091505b509150915061161885838361165f565b9250505092915050565b600034111561165d576040517fb398979f00000000000000000000000000000000000000000000000000000000815260040160405180910390fd5b565b6060826116745761166f826116ee565b6116e6565b6000825114801561169c575060008473ffffffffffffffffffffffffffffffffffffffff163b145b156116de57836040517f9996b3150000000000000000000000000000000000000000000000000000000081526004016116d59190611a21565b60405180910390fd5b8190506116e7565b5b9392505050565b6000815111156117015780518082602001fd5b6040517fd6bda27500000000000000000000000000000000000000000000000000000000815260040160405180910390fd5b604051806104400160405280602290602082028036833780820191505090505090565b6000604051905090565b600080fd5b600080fd5b600073ffffffffffffffffffffffffffffffffffffffff82169050919050565b60006117958261176a565b9050919050565b6117a58161178a565b81146117b057600080fd5b50565b6000813590506117c28161179c565b92915050565b600080604083850312156117df576117de611760565b5b60006117ed858286016117b3565b92505060206117fe858286016117b3565b9150509250929050565b600080fd5b600080fd5b6000601f19601f8301169050919050565b7f4e487b7100000000000000000000000000000000000000000000000000000000600052604160045260246000fd5b61185b82611812565b810181811067ffffffffffffffff8211171561187a57611879611823565b5b80604052505050565b600061188d611756565b90506118998282611852565b919050565b600067ffffffffffffffff8211156118b9576118b8611823565b5b6118c282611812565b9050602081019050919050565b82818337600083830152505050565b60006118f16118ec8461189e565b611883565b90508281526020810184848401111561190d5761190c61180d565b5b6119188482856118cf565b509392505050565b600082601f83011261193557611934611808565b5b81356119458482602086016118de565b91505092915050565b6000806040838503121561196557611964611760565b5b6000611973858286016117b3565b925050602083013567ffffffffffffffff81111561199457611993611765565b5b6119a085828601611920565b9150509250929050565b6000819050919050565b6119bd816119aa565b82525050565b60006020820190506119d860008301846119b4565b92915050565b6000819050919050565b6119f1816119de565b82525050565b6000602082019050611a0c60008301846119e8565b92915050565b611a1b8161178a565b82525050565b6000602082019050611a366000830184611a12565b92915050565b600080fd5b600080fd5b600067ffffffffffffffff821115611a6157611a60611823565b5b611a6a82611812565b9050602081019050919050565b6000611a8a611a8584611a46565b611883565b905082815260208101848484011115611aa657611aa561180d565b5b611ab18482856118cf565b509392505050565b600082601f830112611ace57611acd611808565b5b8135611ade848260208601611a77565b91505092915050565b611af0816119de565b8114611afb57600080fd5b50565b600081359050611b0d81611ae7565b92915050565b611b1c816119aa565b8114611b2757600080fd5b50565b600081359050611b3981611b13565b92915050565b60008115159050919050565b611b5481611b3f565b8114611b5f57600080fd5b50565b600081359050611b7181611b4b565b92915050565b60006101008284031215611b8e57611b8d611a3c565b5b611b99610100611883565b9050600082013567ffffffffffffffff811115611bb957611bb8611a41565b5b611bc584828501611ab9565b6000830152506020611bd984828501611afe565b6020830152506040611bed84828501611b2a565b604083015250606082013567ffffffffffffffff811115611c1157611c10611a41565b5b611c1d84828501611ab9565b6060830152506080611c3184828501611afe565b60808301525060a0611c4584828501611afe565b60a08301525060c0611c5984828501611b62565b60c08301525060e082013567ffffffffffffffff811115611c7d57611c7c611a41565b5b611c8984828501611920565b60e08301525092915050565b600060208284031215611cab57611caa611760565b5b600082013567ffffffffffffffff811115611cc957611cc8611765565b5b611cd584828501611b77565b91505092915050565b611ce781611b3f565b82525050565b6000602082019050611d026000830184611cde565b92915050565b600081519050919050565b600082825260208201905092915050565b60005b83811015611d42578082015181840152602081019050611d27565b60008484015250505050565b6000611d5982611d08565b611d638185611d13565b9350611d73818560208601611d24565b611d7c81611812565b840191505092915050565b60006020820190508181036000830152611da18184611d4e565b905092915050565b600060208284031215611dbf57611dbe611760565b5b6000611dcd848285016117b3565b91505092915050565b6000819050919050565b600067ffffffffffffffff82169050919050565b6000819050919050565b6000611e19611e14611e0f84611dd6565b611df4565b611de0565b9050919050565b611e2981611dfe565b82525050565b6000602082019050611e446000830184611e20565b92915050565b600067ffffffffffffffff821115611e6557611e64611823565b5b602082029050919050565b600080fd5b600081519050611e8481611b13565b92915050565b6000611e9d611e9884611e4a565b611883565b90508060208402830185811115611eb757611eb6611e70565b5b835b81811015611ee05780611ecc8882611e75565b845260208401935050602081019050611eb9565b5050509392505050565b600082601f830112611eff57611efe611808565b5b6002611f0c848285611e8a565b91505092915050565b600067ffffffffffffffff821115611f3057611f2f611823565b5b602082029050919050565b6000611f4e611f4984611f15565b611883565b90508060408402830185811115611f6857611f67611e70565b5b835b81811015611f915780611f7d8882611eea565b845260208401935050604081019050611f6a565b5050509392505050565b600082601f830112611fb057611faf611808565b5b6002611fbd848285611f3b565b91505092915050565b60008060006101008486031215611fe057611fdf611760565b5b6000611fee86828701611eea565b9350506040611fff86828701611f9b565b92505060c061201086828701611eea565b9150509250925092565b7f4e487b7100000000000000000000000000000000000000000000000000000000600052603260045260246000fd5b7f696e76616c696420666f726d6174206f66207041000000000000000000000000600082015250565b600061207f601483611d13565b915061208a82612049565b602082019050919050565b600060208201905081810360008301526120ae81612072565b9050919050565b7f696e76616c696420666f726d6174206f66207042000000000000000000000000600082015250565b60006120eb601483611d13565b91506120f6826120b5565b602082019050919050565b6000602082019050818103600083015261211a816120de565b9050919050565b7f696e76616c696420666f726d6174206f66207043000000000000000000000000600082015250565b6000612157601483611d13565b915061216282612121565b602082019050919050565b600060208201905081810360008301526121868161214a565b9050919050565b7f4e487b7100000000000000000000000000000000000000000000000000000000600052601160045260246000fd5b60006121c7826119aa565b91506121d2836119aa565b92508282019050808211156121ea576121e961218d565b5b92915050565b600060029050919050565b600081905092915050565b6000819050919050565b612219816119aa565b82525050565b600061222b8383612210565b60208301905092915050565b6000602082019050919050565b61224d816121f0565b61225781846121fb565b925061226282612206565b8060005b8381101561229357815161227a878261221f565b965061228583612237565b925050600181019050612266565b505050505050565b600060029050919050565b600081905092915050565b6000819050919050565b600081905092915050565b6122cf816121f0565b6122d981846122bb565b92506122e482612206565b8060005b838110156123155781516122fc878261221f565b965061230783612237565b9250506001810190506122e8565b505050505050565b600061232983836122c6565b60408301905092915050565b6000602082019050919050565b61234b8161229b565b61235581846122a6565b9250612360826122b1565b8060005b83811015612391578151612378878261231d565b965061238383612335565b925050600181019050612364565b505050505050565b600060229050919050565b600081905092915050565b6000819050919050565b6000602082019050919050565b6123cf81612399565b6123d981846123a4565b92506123e4826123af565b8060005b838110156124155781516123fc878261221f565b9650612407836123b9565b9250506001810190506123e8565b505050505050565b6000610540820190506124336000830187612244565b6124406040830186612342565b61244d60c0830185612244565b61245b6101008301846123c6565b95945050505050565b60008151905061247381611b4b565b92915050565b60006020828403121561248f5761248e611760565b5b600061249d84828501612464565b91505092915050565b7f4e65772067726f7468313656657269666965722061646472657373206973206960008201527f6e76616c69640000000000000000000000000000000000000000000000000000602082015250565b6000612502602683611d13565b915061250d826124a6565b604082019050919050565b60006020820190508181036000830152612531816124f5565b9050919050565b60008151905061254781611ae7565b92915050565b60006020828403121561256357612562611760565b5b600061257184828501612538565b91505092915050565b7f4e487b7100000000000000000000000000000000000000000000000000000000600052601260045260246000fd5b60006125b4826119aa565b91506125bf836119aa565b9250826125cf576125ce61257a565b5b828206905092915050565b60006125e5826119aa565b91506125f0836119aa565b92508282039050818111156126085761260761218d565b5b92915050565b6000612619826119aa565b9150612624836119aa565b9250826126345761263361257a565b5b828204905092915050565b600061264a826119aa565b9150612655836119aa565b9250828202612663816119aa565b9150828204841483151761267a5761267961218d565b5b5092915050565b600081519050919050565b600081905092915050565b60006126a282612681565b6126ac818561268c565b93506126bc818560208601611d24565b80840191505092915050565b60006126d48284612697565b91508190509291505056fea264697066735822122089e98b16c6d9b4e1928baa664fa35560b91cb1cf648dfbed371dbdbdaa08afff64736f6c63430008190033",
  "linkReferences": {},
  "deployedLinkReferences": {}
}